{
  "contractName": "StakeContract",
  "abi": [
    {
      "inputs": [],
      "stateMutability": "nonpayable",
      "type": "constructor"
    },
    {
      "anonymous": false,
      "inputs": [
        {
          "indexed": true,
          "internalType": "address",
          "name": "owner",
          "type": "address"
        },
        {
          "indexed": true,
          "internalType": "address",
          "name": "spender",
          "type": "address"
        },
        {
          "indexed": false,
          "internalType": "uint256",
          "name": "value",
          "type": "uint256"
        }
      ],
      "name": "Approval",
      "type": "event"
    },
    {
      "anonymous": false,
      "inputs": [
        {
          "indexed": true,
          "internalType": "address",
          "name": "previousOwner",
          "type": "address"
        },
        {
          "indexed": true,
          "internalType": "address",
          "name": "newOwner",
          "type": "address"
        }
      ],
      "name": "OwnershipTransferred",
      "type": "event"
    },
    {
      "anonymous": false,
      "inputs": [
        {
          "indexed": true,
          "internalType": "address",
          "name": "from",
          "type": "address"
        },
        {
          "indexed": true,
          "internalType": "address",
          "name": "to",
          "type": "address"
        },
        {
          "indexed": false,
          "internalType": "uint256",
          "name": "value",
          "type": "uint256"
        }
      ],
      "name": "Transfer",
      "type": "event"
    },
    {
      "inputs": [],
      "name": "_time",
      "outputs": [
        {
          "internalType": "uint256",
          "name": "",
          "type": "uint256"
        }
      ],
      "stateMutability": "view",
      "type": "function",
      "constant": true
    },
    {
      "inputs": [
        {
          "internalType": "address",
          "name": "owner",
          "type": "address"
        },
        {
          "internalType": "address",
          "name": "spender",
          "type": "address"
        }
      ],
      "name": "allowance",
      "outputs": [
        {
          "internalType": "uint256",
          "name": "",
          "type": "uint256"
        }
      ],
      "stateMutability": "view",
      "type": "function",
      "constant": true
    },
    {
      "inputs": [
        {
          "internalType": "address",
          "name": "spender",
          "type": "address"
        },
        {
          "internalType": "uint256",
          "name": "amount",
          "type": "uint256"
        }
      ],
      "name": "approve",
      "outputs": [
        {
          "internalType": "bool",
          "name": "",
          "type": "bool"
        }
      ],
      "stateMutability": "nonpayable",
      "type": "function"
    },
    {
      "inputs": [
        {
          "internalType": "address",
          "name": "account",
          "type": "address"
        }
      ],
      "name": "balanceOf",
      "outputs": [
        {
          "internalType": "uint256",
          "name": "",
          "type": "uint256"
        }
      ],
      "stateMutability": "view",
      "type": "function",
      "constant": true
    },
    {
      "inputs": [],
      "name": "decimals",
      "outputs": [
        {
          "internalType": "uint8",
          "name": "",
          "type": "uint8"
        }
      ],
      "stateMutability": "view",
      "type": "function",
      "constant": true
    },
    {
      "inputs": [
        {
          "internalType": "address",
          "name": "spender",
          "type": "address"
        },
        {
          "internalType": "uint256",
          "name": "subtractedValue",
          "type": "uint256"
        }
      ],
      "name": "decreaseAllowance",
      "outputs": [
        {
          "internalType": "bool",
          "name": "",
          "type": "bool"
        }
      ],
      "stateMutability": "nonpayable",
      "type": "function"
    },
    {
      "inputs": [
        {
          "internalType": "address",
          "name": "spender",
          "type": "address"
        },
        {
          "internalType": "uint256",
          "name": "addedValue",
          "type": "uint256"
        }
      ],
      "name": "increaseAllowance",
      "outputs": [
        {
          "internalType": "bool",
          "name": "",
          "type": "bool"
        }
      ],
      "stateMutability": "nonpayable",
      "type": "function"
    },
    {
      "inputs": [
        {
          "internalType": "address",
          "name": "",
          "type": "address"
        }
      ],
      "name": "isStakeholder",
      "outputs": [
        {
          "internalType": "bool",
          "name": "",
          "type": "bool"
        }
      ],
      "stateMutability": "view",
      "type": "function",
      "constant": true
    },
    {
      "inputs": [],
      "name": "name",
      "outputs": [
        {
          "internalType": "string",
          "name": "",
          "type": "string"
        }
      ],
      "stateMutability": "view",
      "type": "function",
      "constant": true
    },
    {
      "inputs": [],
      "name": "owner",
      "outputs": [
        {
          "internalType": "address",
          "name": "",
          "type": "address"
        }
      ],
      "stateMutability": "view",
      "type": "function",
      "constant": true
    },
    {
      "inputs": [],
      "name": "renounceOwnership",
      "outputs": [],
      "stateMutability": "nonpayable",
      "type": "function"
    },
    {
      "inputs": [
        {
          "internalType": "address",
          "name": "",
          "type": "address"
        }
      ],
      "name": "rewards",
      "outputs": [
        {
          "internalType": "uint256",
          "name": "",
          "type": "uint256"
        }
      ],
      "stateMutability": "view",
      "type": "function",
      "constant": true
    },
    {
      "inputs": [
        {
          "internalType": "address",
          "name": "",
          "type": "address"
        }
      ],
      "name": "stakeBalance",
      "outputs": [
        {
          "internalType": "uint256",
          "name": "",
          "type": "uint256"
        }
      ],
      "stateMutability": "view",
      "type": "function",
      "constant": true
    },
    {
      "inputs": [],
      "name": "symbol",
      "outputs": [
        {
          "internalType": "string",
          "name": "",
          "type": "string"
        }
      ],
      "stateMutability": "view",
      "type": "function",
      "constant": true
    },
    {
      "inputs": [],
      "name": "totalSupply",
      "outputs": [
        {
          "internalType": "uint256",
          "name": "",
          "type": "uint256"
        }
      ],
      "stateMutability": "view",
      "type": "function",
      "constant": true
    },
    {
      "inputs": [
        {
          "internalType": "address",
          "name": "to",
          "type": "address"
        },
        {
          "internalType": "uint256",
          "name": "amount",
          "type": "uint256"
        }
      ],
      "name": "transfer",
      "outputs": [
        {
          "internalType": "bool",
          "name": "",
          "type": "bool"
        }
      ],
      "stateMutability": "nonpayable",
      "type": "function"
    },
    {
      "inputs": [
        {
          "internalType": "address",
          "name": "from",
          "type": "address"
        },
        {
          "internalType": "address",
          "name": "to",
          "type": "address"
        },
        {
          "internalType": "uint256",
          "name": "amount",
          "type": "uint256"
        }
      ],
      "name": "transferFrom",
      "outputs": [
        {
          "internalType": "bool",
          "name": "",
          "type": "bool"
        }
      ],
      "stateMutability": "nonpayable",
      "type": "function"
    },
    {
      "inputs": [
        {
          "internalType": "address",
          "name": "newOwner",
          "type": "address"
        }
      ],
      "name": "transferOwnership",
      "outputs": [],
      "stateMutability": "nonpayable",
      "type": "function"
    },
    {
      "inputs": [
        {
          "internalType": "uint256",
          "name": "amount",
          "type": "uint256"
        }
      ],
      "name": "modifyTokenBuyPrice",
      "outputs": [
        {
          "internalType": "uint256",
          "name": "",
          "type": "uint256"
        }
      ],
      "stateMutability": "view",
      "type": "function",
      "constant": true
    },
    {
      "inputs": [
        {
          "internalType": "uint256",
          "name": "_quantity",
          "type": "uint256"
        }
      ],
      "name": "buyToken",
      "outputs": [],
      "stateMutability": "nonpayable",
      "type": "function"
    },
    {
      "inputs": [
        {
          "internalType": "uint256",
          "name": "_amount",
          "type": "uint256"
        }
      ],
      "name": "stake",
      "outputs": [],
      "stateMutability": "nonpayable",
      "type": "function"
    },
    {
      "inputs": [
        {
          "internalType": "uint256",
          "name": "_amount",
          "type": "uint256"
        }
      ],
      "name": "unStake",
      "outputs": [],
      "stateMutability": "nonpayable",
      "type": "function"
    },
    {
      "inputs": [
        {
          "internalType": "uint256",
          "name": "_amount",
          "type": "uint256"
        }
      ],
      "name": "transferToken",
      "outputs": [],
      "stateMutability": "payable",
      "type": "function",
      "payable": true
    },
    {
      "inputs": [],
      "name": "claimReward",
      "outputs": [],
      "stateMutability": "nonpayable",
      "type": "function"
    }
  ],
  "bytecode": "0x60806040523480156200001157600080fd5b506040518060400160405280600d81526020017f5374616b65436f6e7472616374000000000000000000000000000000000000008152506040518060400160405280600381526020017f53544b00000000000000000000000000000000000000000000000000000000008152508160039080519060200190620000969291906200034b565b508060049080519060200190620000af9291906200034b565b505050620000d2620000c6620000fa60201b60201c565b6200010260201b60201c565b620000ed33683635c9adc5dea00000620001c860201b60201c565b42600781905550620005a7565b600033905090565b6000600560009054906101000a900473ffffffffffffffffffffffffffffffffffffffff16905081600560006101000a81548173ffffffffffffffffffffffffffffffffffffffff021916908373ffffffffffffffffffffffffffffffffffffffff1602179055508173ffffffffffffffffffffffffffffffffffffffff168173ffffffffffffffffffffffffffffffffffffffff167f8be0079c531659141344cd1fd0a4f28419497f9722a3daafe3b4186f6b6457e060405160405180910390a35050565b600073ffffffffffffffffffffffffffffffffffffffff168273ffffffffffffffffffffffffffffffffffffffff1614156200023b576040517f08c379a0000000000000000000000000000000000000000000000000000000008152600401620002329062000433565b60405180910390fd5b6200024f600083836200034160201b60201c565b806002600082825462000263919062000483565b92505081905550806000808473ffffffffffffffffffffffffffffffffffffffff1673ffffffffffffffffffffffffffffffffffffffff1681526020019081526020016000206000828254620002ba919062000483565b925050819055508173ffffffffffffffffffffffffffffffffffffffff16600073ffffffffffffffffffffffffffffffffffffffff167fddf252ad1be2c89b69c2b068fc378daa952ba7f163c4a11628f55a4df523b3ef8360405162000321919062000455565b60405180910390a36200033d600083836200034660201b60201c565b5050565b505050565b505050565b8280546200035990620004ea565b90600052602060002090601f0160209004810192826200037d5760008555620003c9565b82601f106200039857805160ff1916838001178555620003c9565b82800160010185558215620003c9579182015b82811115620003c8578251825591602001919060010190620003ab565b5b509050620003d89190620003dc565b5090565b5b80821115620003f7576000816000905550600101620003dd565b5090565b60006200040a601f8362000472565b915062000417826200057e565b602082019050919050565b6200042d81620004e0565b82525050565b600060208201905081810360008301526200044e81620003fb565b9050919050565b60006020820190506200046c600083018462000422565b92915050565b600082825260208201905092915050565b60006200049082620004e0565b91506200049d83620004e0565b9250827fffffffffffffffffffffffffffffffffffffffffffffffffffffffffffffffff03821115620004d557620004d462000520565b5b828201905092915050565b6000819050919050565b600060028204905060018216806200050357607f821691505b602082108114156200051a57620005196200054f565b5b50919050565b7f4e487b7100000000000000000000000000000000000000000000000000000000600052601160045260246000fd5b7f4e487b7100000000000000000000000000000000000000000000000000000000600052602260045260246000fd5b7f45524332303a206d696e7420746f20746865207a65726f206164647265737300600082015250565b61298880620005b76000396000f3fe60806040526004361061014b5760003560e01c8063715018a6116100b6578063a694fc3a1161006f578063a694fc3a146104bf578063a9059cbb146104e8578063b88a802f14610525578063dd62ed3e1461053c578063ef037b9014610579578063f2fde38b146105b65761014b565b8063715018a6146103bc578063834dc984146103d35780638da5cb5b1461041057806395d89b411461043b5780639fc71b3114610466578063a457c2d7146104825761014b565b8063313ce56711610108578063313ce5671461028657806339509351146102b15780634e7c57a6146102ee57806357d15c6a1461032b5780635d3eea911461035657806370a082311461037f5761014b565b806306fdde03146101505780630700037d1461017b578063095ea7b3146101b857806318160ddd146101f557806323b872dd146102205780632d296bf11461025d575b600080fd5b34801561015c57600080fd5b506101656105df565b6040516101729190612037565b60405180910390f35b34801561018757600080fd5b506101a2600480360381019061019d9190611c66565b610671565b6040516101af9190612239565b60405180910390f35b3480156101c457600080fd5b506101df60048036038101906101da9190611d1a565b610689565b6040516101ec919061201c565b60405180910390f35b34801561020157600080fd5b5061020a6106ac565b6040516102179190612239565b60405180910390f35b34801561022c57600080fd5b5061024760048036038101906102429190611ccb565b6106b6565b604051610254919061201c565b60405180910390f35b34801561026957600080fd5b50610284600480360381019061027f9190611d56565b6106e5565b005b34801561029257600080fd5b5061029b6106f2565b6040516102a89190612254565b60405180910390f35b3480156102bd57600080fd5b506102d860048036038101906102d39190611d1a565b6106fb565b6040516102e5919061201c565b60405180910390f35b3480156102fa57600080fd5b5061031560048036038101906103109190611c66565b6107a5565b6040516103229190612239565b60405180910390f35b34801561033757600080fd5b506103406107bd565b60405161034d9190612239565b60405180910390f35b34801561036257600080fd5b5061037d60048036038101906103789190611d56565b6107c3565b005b34801561038b57600080fd5b506103a660048036038101906103a19190611c66565b61098e565b6040516103b39190612239565b60405180910390f35b3480156103c857600080fd5b506103d16109d6565b005b3480156103df57600080fd5b506103fa60048036038101906103f59190611d56565b610a5e565b6040516104079190612239565b60405180910390f35b34801561041c57600080fd5b50610425610afd565b6040516104329190612001565b60405180910390f35b34801561044757600080fd5b50610450610b27565b60405161045d9190612037565b60405180910390f35b610480600480360381019061047b9190611d56565b610bb9565b005b34801561048e57600080fd5b506104a960048036038101906104a49190611d1a565b610d20565b6040516104b6919061201c565b60405180910390f35b3480156104cb57600080fd5b506104e660048036038101906104e19190611d56565b610e0a565b005b3480156104f457600080fd5b5061050f600480360381019061050a9190611d1a565b610ff3565b60405161051c919061201c565b60405180910390f35b34801561053157600080fd5b5061053a611016565b005b34801561054857600080fd5b50610563600480360381019061055e9190611c8f565b61118a565b6040516105709190612239565b60405180910390f35b34801561058557600080fd5b506105a0600480360381019061059b9190611c66565b611211565b6040516105ad919061201c565b60405180910390f35b3480156105c257600080fd5b506105dd60048036038101906105d89190611c66565b611231565b005b6060600380546105ee90612428565b80601f016020809104026020016040519081016040528092919081815260200182805461061a90612428565b80156106675780601f1061063c57610100808354040283529160200191610667565b820191906000526020600020905b81548152906001019060200180831161064a57829003601f168201915b5050505050905090565b600b6020528060005260406000206000915090505481565b600080610694611329565b90506106a1818585611331565b600191505092915050565b6000600254905090565b6000806106c1611329565b90506106ce8582856114fc565b6106d9858585611588565b60019150509392505050565b6106ef3382611809565b50565b60006012905090565b600080610706611329565b905061079a818585600160008673ffffffffffffffffffffffffffffffffffffffff1673ffffffffffffffffffffffffffffffffffffffff16815260200190815260200160002060008973ffffffffffffffffffffffffffffffffffffffff1673ffffffffffffffffffffffffffffffffffffffff16815260200190815260200160002054610795919061228b565b611331565b600191505092915050565b60096020528060005260406000206000915090505481565b60075481565b6000600960003373ffffffffffffffffffffffffffffffffffffffff1673ffffffffffffffffffffffffffffffffffffffff1681526020019081526020016000205490506000811161084a576040517f08c379a000000000000000000000000000000000000000000000000000000000815260040161084190612179565b60405180910390fd5b61089c82600960003373ffffffffffffffffffffffffffffffffffffffff1673ffffffffffffffffffffffffffffffffffffffff1681526020019081526020016000205461196990919063ffffffff16565b600960003373ffffffffffffffffffffffffffffffffffffffff1673ffffffffffffffffffffffffffffffffffffffff168152602001908152602001600020819055506108e93383611809565b6000600960003373ffffffffffffffffffffffffffffffffffffffff1673ffffffffffffffffffffffffffffffffffffffff16815260200190815260200160002054141561098a576000600a60003373ffffffffffffffffffffffffffffffffffffffff1673ffffffffffffffffffffffffffffffffffffffff16815260200190815260200160002060006101000a81548160ff0219169083151502179055505b5050565b60008060008373ffffffffffffffffffffffffffffffffffffffff1673ffffffffffffffffffffffffffffffffffffffff168152602001908152602001600020549050919050565b6109de611329565b73ffffffffffffffffffffffffffffffffffffffff166109fc610afd565b73ffffffffffffffffffffffffffffffffffffffff1614610a52576040517f08c379a0000000000000000000000000000000000000000000000000000000008152600401610a4990612159565b60405180910390fd5b610a5c600061197f565b565b6000610a68611329565b73ffffffffffffffffffffffffffffffffffffffff16610a86610afd565b73ffffffffffffffffffffffffffffffffffffffff1614610adc576040517f08c379a0000000000000000000000000000000000000000000000000000000008152600401610ad390612159565b60405180910390fd5b6000670de0b6b3a764000083610af29190612312565b905080915050919050565b6000600560009054906101000a900473ffffffffffffffffffffffffffffffffffffffff16905090565b606060048054610b3690612428565b80601f0160208091040260200160405190810160405280929190818152602001828054610b6290612428565b8015610baf5780601f10610b8457610100808354040283529160200191610baf565b820191906000526020600020905b815481529060010190602001808311610b9257829003601f168201915b5050505050905090565b610bc1611329565b73ffffffffffffffffffffffffffffffffffffffff16610bdf610afd565b73ffffffffffffffffffffffffffffffffffffffff1614610c35576040517f08c379a0000000000000000000000000000000000000000000000000000000008152600401610c2c90612159565b60405180910390fd5b60005b600880549050811015610d1c57600060088281548110610c81577f4e487b7100000000000000000000000000000000000000000000000000000000600052603260045260246000fd5b9060005260206000200160009054906101000a900473ffffffffffffffffffffffffffffffffffffffff1690506000600960008373ffffffffffffffffffffffffffffffffffffffff1673ffffffffffffffffffffffffffffffffffffffff1681526020019081526020016000205490506000811115610d0757610d058285610ff3565b505b50508080610d149061245a565b915050610c38565b5050565b600080610d2b611329565b90506000600160008373ffffffffffffffffffffffffffffffffffffffff1673ffffffffffffffffffffffffffffffffffffffff16815260200190815260200160002060008673ffffffffffffffffffffffffffffffffffffffff1673ffffffffffffffffffffffffffffffffffffffff16815260200190815260200160002054905083811015610df1576040517f08c379a0000000000000000000000000000000000000000000000000000000008152600401610de8906121f9565b60405180910390fd5b610dfe8286868403611331565b60019250505092915050565b60008111610e4d576040517f08c379a0000000000000000000000000000000000000000000000000000000008152600401610e44906120d9565b60405180910390fd5b610e573382611a45565b6000600960003373ffffffffffffffffffffffffffffffffffffffff1673ffffffffffffffffffffffffffffffffffffffff168152602001908152602001600020541415610f03576008339080600181540180825580915050600190039060005260206000200160009091909190916101000a81548173ffffffffffffffffffffffffffffffffffffffff021916908373ffffffffffffffffffffffffffffffffffffffff1602179055505b610f5581600960003373ffffffffffffffffffffffffffffffffffffffff1673ffffffffffffffffffffffffffffffffffffffff16815260200190815260200160002054611c1c90919063ffffffff16565b600960003373ffffffffffffffffffffffffffffffffffffffff1673ffffffffffffffffffffffffffffffffffffffff168152602001908152602001600020819055506001600a60003373ffffffffffffffffffffffffffffffffffffffff1673ffffffffffffffffffffffffffffffffffffffff16815260200190815260200160002060006101000a81548160ff02191690831515021790555050565b600080610ffe611329565b905061100b818585611588565b600191505092915050565b62093a806007541061105d576040517f08c379a000000000000000000000000000000000000000000000000000000000815260040161105490612139565b60405180910390fd5b6064600960003373ffffffffffffffffffffffffffffffffffffffff1673ffffffffffffffffffffffffffffffffffffffff168152602001908152602001600020546110a991906122e1565b600b60003373ffffffffffffffffffffffffffffffffffffffff1673ffffffffffffffffffffffffffffffffffffffff168152602001908152602001600020819055506000600b60003373ffffffffffffffffffffffffffffffffffffffff1673ffffffffffffffffffffffffffffffffffffffff16815260200190815260200160002054905061113a3382611809565b6000600b60003373ffffffffffffffffffffffffffffffffffffffff1673ffffffffffffffffffffffffffffffffffffffff16815260200190815260200160002081905550600060078190555050565b6000600160008473ffffffffffffffffffffffffffffffffffffffff1673ffffffffffffffffffffffffffffffffffffffff16815260200190815260200160002060008373ffffffffffffffffffffffffffffffffffffffff1673ffffffffffffffffffffffffffffffffffffffff16815260200190815260200160002054905092915050565b600a6020528060005260406000206000915054906101000a900460ff1681565b611239611329565b73ffffffffffffffffffffffffffffffffffffffff16611257610afd565b73ffffffffffffffffffffffffffffffffffffffff16146112ad576040517f08c379a00000000000000000000000000000000000000000000000000000000081526004016112a490612159565b60405180910390fd5b600073ffffffffffffffffffffffffffffffffffffffff168173ffffffffffffffffffffffffffffffffffffffff16141561131d576040517f08c379a000000000000000000000000000000000000000000000000000000000815260040161131490612099565b60405180910390fd5b6113268161197f565b50565b600033905090565b600073ffffffffffffffffffffffffffffffffffffffff168373ffffffffffffffffffffffffffffffffffffffff1614156113a1576040517f08c379a0000000000000000000000000000000000000000000000000000000008152600401611398906121d9565b60405180910390fd5b600073ffffffffffffffffffffffffffffffffffffffff168273ffffffffffffffffffffffffffffffffffffffff161415611411576040517f08c379a0000000000000000000000000000000000000000000000000000000008152600401611408906120b9565b60405180910390fd5b80600160008573ffffffffffffffffffffffffffffffffffffffff1673ffffffffffffffffffffffffffffffffffffffff16815260200190815260200160002060008473ffffffffffffffffffffffffffffffffffffffff1673ffffffffffffffffffffffffffffffffffffffff168152602001908152602001600020819055508173ffffffffffffffffffffffffffffffffffffffff168373ffffffffffffffffffffffffffffffffffffffff167f8c5be1e5ebec7d5bd14f71427d1e84f3dd0314c0f7b2291e5b200ac8c7c3b925836040516114ef9190612239565b60405180910390a3505050565b6000611508848461118a565b90507fffffffffffffffffffffffffffffffffffffffffffffffffffffffffffffffff81146115825781811015611574576040517f08c379a000000000000000000000000000000000000000000000000000000000815260040161156b906120f9565b60405180910390fd5b6115818484848403611331565b5b50505050565b600073ffffffffffffffffffffffffffffffffffffffff168373ffffffffffffffffffffffffffffffffffffffff1614156115f8576040517f08c379a00000000000000000000000000000000000000000000000000000000081526004016115ef906121b9565b60405180910390fd5b600073ffffffffffffffffffffffffffffffffffffffff168273ffffffffffffffffffffffffffffffffffffffff161415611668576040517f08c379a000000000000000000000000000000000000000000000000000000000815260040161165f90612059565b60405180910390fd5b611673838383611c32565b60008060008573ffffffffffffffffffffffffffffffffffffffff1673ffffffffffffffffffffffffffffffffffffffff168152602001908152602001600020549050818110156116f9576040517f08c379a00000000000000000000000000000000000000000000000000000000081526004016116f090612119565b60405180910390fd5b8181036000808673ffffffffffffffffffffffffffffffffffffffff1673ffffffffffffffffffffffffffffffffffffffff16815260200190815260200160002081905550816000808573ffffffffffffffffffffffffffffffffffffffff1673ffffffffffffffffffffffffffffffffffffffff168152602001908152602001600020600082825461178c919061228b565b925050819055508273ffffffffffffffffffffffffffffffffffffffff168473ffffffffffffffffffffffffffffffffffffffff167fddf252ad1be2c89b69c2b068fc378daa952ba7f163c4a11628f55a4df523b3ef846040516117f09190612239565b60405180910390a3611803848484611c37565b50505050565b600073ffffffffffffffffffffffffffffffffffffffff168273ffffffffffffffffffffffffffffffffffffffff161415611879576040517f08c379a000000000000000000000000000000000000000000000000000000000815260040161187090612219565b60405180910390fd5b61188560008383611c32565b8060026000828254611897919061228b565b92505081905550806000808473ffffffffffffffffffffffffffffffffffffffff1673ffffffffffffffffffffffffffffffffffffffff16815260200190815260200160002060008282546118ec919061228b565b925050819055508173ffffffffffffffffffffffffffffffffffffffff16600073ffffffffffffffffffffffffffffffffffffffff167fddf252ad1be2c89b69c2b068fc378daa952ba7f163c4a11628f55a4df523b3ef836040516119519190612239565b60405180910390a361196560008383611c37565b5050565b60008183611977919061236c565b905092915050565b6000600560009054906101000a900473ffffffffffffffffffffffffffffffffffffffff16905081600560006101000a81548173ffffffffffffffffffffffffffffffffffffffff021916908373ffffffffffffffffffffffffffffffffffffffff1602179055508173ffffffffffffffffffffffffffffffffffffffff168173ffffffffffffffffffffffffffffffffffffffff167f8be0079c531659141344cd1fd0a4f28419497f9722a3daafe3b4186f6b6457e060405160405180910390a35050565b600073ffffffffffffffffffffffffffffffffffffffff168273ffffffffffffffffffffffffffffffffffffffff161415611ab5576040517f08c379a0000000000000000000000000000000000000000000000000000000008152600401611aac90612199565b60405180910390fd5b611ac182600083611c32565b60008060008473ffffffffffffffffffffffffffffffffffffffff1673ffffffffffffffffffffffffffffffffffffffff16815260200190815260200160002054905081811015611b47576040517f08c379a0000000000000000000000000000000000000000000000000000000008152600401611b3e90612079565b60405180910390fd5b8181036000808573ffffffffffffffffffffffffffffffffffffffff1673ffffffffffffffffffffffffffffffffffffffff168152602001908152602001600020819055508160026000828254611b9e919061236c565b92505081905550600073ffffffffffffffffffffffffffffffffffffffff168373ffffffffffffffffffffffffffffffffffffffff167fddf252ad1be2c89b69c2b068fc378daa952ba7f163c4a11628f55a4df523b3ef84604051611c039190612239565b60405180910390a3611c1783600084611c37565b505050565b60008183611c2a919061228b565b905092915050565b505050565b505050565b600081359050611c4b81612924565b92915050565b600081359050611c608161293b565b92915050565b600060208284031215611c7857600080fd5b6000611c8684828501611c3c565b91505092915050565b60008060408385031215611ca257600080fd5b6000611cb085828601611c3c565b9250506020611cc185828601611c3c565b9150509250929050565b600080600060608486031215611ce057600080fd5b6000611cee86828701611c3c565b9350506020611cff86828701611c3c565b9250506040611d1086828701611c51565b9150509250925092565b60008060408385031215611d2d57600080fd5b6000611d3b85828601611c3c565b9250506020611d4c85828601611c51565b9150509250929050565b600060208284031215611d6857600080fd5b6000611d7684828501611c51565b91505092915050565b611d88816123a0565b82525050565b611d97816123b2565b82525050565b6000611da88261226f565b611db2818561227a565b9350611dc28185602086016123f5565b611dcb81612530565b840191505092915050565b6000611de360238361227a565b9150611dee82612541565b604082019050919050565b6000611e0660228361227a565b9150611e1182612590565b604082019050919050565b6000611e2960268361227a565b9150611e34826125df565b604082019050919050565b6000611e4c60228361227a565b9150611e578261262e565b604082019050919050565b6000611e6f60118361227a565b9150611e7a8261267d565b602082019050919050565b6000611e92601d8361227a565b9150611e9d826126a6565b602082019050919050565b6000611eb560268361227a565b9150611ec0826126cf565b604082019050919050565b6000611ed8601b8361227a565b9150611ee38261271e565b602082019050919050565b6000611efb60208361227a565b9150611f0682612747565b602082019050919050565b6000611f1e60268361227a565b9150611f2982612770565b604082019050919050565b6000611f4160218361227a565b9150611f4c826127bf565b604082019050919050565b6000611f6460258361227a565b9150611f6f8261280e565b604082019050919050565b6000611f8760248361227a565b9150611f928261285d565b604082019050919050565b6000611faa60258361227a565b9150611fb5826128ac565b604082019050919050565b6000611fcd601f8361227a565b9150611fd8826128fb565b602082019050919050565b611fec816123de565b82525050565b611ffb816123e8565b82525050565b60006020820190506120166000830184611d7f565b92915050565b60006020820190506120316000830184611d8e565b92915050565b600060208201905081810360008301526120518184611d9d565b905092915050565b6000602082019050818103600083015261207281611dd6565b9050919050565b6000602082019050818103600083015261209281611df9565b9050919050565b600060208201905081810360008301526120b281611e1c565b9050919050565b600060208201905081810360008301526120d281611e3f565b9050919050565b600060208201905081810360008301526120f281611e62565b9050919050565b6000602082019050818103600083015261211281611e85565b9050919050565b6000602082019050818103600083015261213281611ea8565b9050919050565b6000602082019050818103600083015261215281611ecb565b9050919050565b6000602082019050818103600083015261217281611eee565b9050919050565b6000602082019050818103600083015261219281611f11565b9050919050565b600060208201905081810360008301526121b281611f34565b9050919050565b600060208201905081810360008301526121d281611f57565b9050919050565b600060208201905081810360008301526121f281611f7a565b9050919050565b6000602082019050818103600083015261221281611f9d565b9050919050565b6000602082019050818103600083015261223281611fc0565b9050919050565b600060208201905061224e6000830184611fe3565b92915050565b60006020820190506122696000830184611ff2565b92915050565b600081519050919050565b600082825260208201905092915050565b6000612296826123de565b91506122a1836123de565b9250827fffffffffffffffffffffffffffffffffffffffffffffffffffffffffffffffff038211156122d6576122d56124a3565b5b828201905092915050565b60006122ec826123de565b91506122f7836123de565b925082612307576123066124d2565b5b828204905092915050565b600061231d826123de565b9150612328836123de565b9250817fffffffffffffffffffffffffffffffffffffffffffffffffffffffffffffffff0483118215151615612361576123606124a3565b5b828202905092915050565b6000612377826123de565b9150612382836123de565b925082821015612395576123946124a3565b5b828203905092915050565b60006123ab826123be565b9050919050565b60008115159050919050565b600073ffffffffffffffffffffffffffffffffffffffff82169050919050565b6000819050919050565b600060ff82169050919050565b60005b838110156124135780820151818401526020810190506123f8565b83811115612422576000848401525b50505050565b6000600282049050600182168061244057607f821691505b6020821081141561245457612453612501565b5b50919050565b6000612465826123de565b91507fffffffffffffffffffffffffffffffffffffffffffffffffffffffffffffffff821415612498576124976124a3565b5b600182019050919050565b7f4e487b7100000000000000000000000000000000000000000000000000000000600052601160045260246000fd5b7f4e487b7100000000000000000000000000000000000000000000000000000000600052601260045260246000fd5b7f4e487b7100000000000000000000000000000000000000000000000000000000600052602260045260246000fd5b6000601f19601f8301169050919050565b7f45524332303a207472616e7366657220746f20746865207a65726f206164647260008201527f6573730000000000000000000000000000000000000000000000000000000000602082015250565b7f45524332303a206275726e20616d6f756e7420657863656564732062616c616e60008201527f6365000000000000000000000000000000000000000000000000000000000000602082015250565b7f4f776e61626c653a206e6577206f776e657220697320746865207a65726f206160008201527f6464726573730000000000000000000000000000000000000000000000000000602082015250565b7f45524332303a20617070726f766520746f20746865207a65726f20616464726560008201527f7373000000000000000000000000000000000000000000000000000000000000602082015250565b7f596f752063616e2774207374616b652030000000000000000000000000000000600082015250565b7f45524332303a20696e73756666696369656e7420616c6c6f77616e6365000000600082015250565b7f45524332303a207472616e7366657220616d6f756e742065786365656473206260008201527f616c616e63650000000000000000000000000000000000000000000000000000602082015250565b7f52657761726420657870697265642061667465722031207765656b0000000000600082015250565b7f4f776e61626c653a2063616c6c6572206973206e6f7420746865206f776e6572600082015250565b7f596f752063616e277420756e7374616b65206d6f7265207468616e20796f757260008201527f207374616b650000000000000000000000000000000000000000000000000000602082015250565b7f45524332303a206275726e2066726f6d20746865207a65726f2061646472657360008201527f7300000000000000000000000000000000000000000000000000000000000000602082015250565b7f45524332303a207472616e736665722066726f6d20746865207a65726f20616460008201527f6472657373000000000000000000000000000000000000000000000000000000602082015250565b7f45524332303a20617070726f76652066726f6d20746865207a65726f2061646460008201527f7265737300000000000000000000000000000000000000000000000000000000602082015250565b7f45524332303a2064656372656173656420616c6c6f77616e63652062656c6f7760008201527f207a65726f000000000000000000000000000000000000000000000000000000602082015250565b7f45524332303a206d696e7420746f20746865207a65726f206164647265737300600082015250565b61292d816123a0565b811461293857600080fd5b50565b612944816123de565b811461294f57600080fd5b5056fea2646970667358221220b8b851da988ebf12a471561f77e92b80b68c5f972d3075a91fb0376bb9010ab764736f6c63430008040033",
  "immutableReferences": {},
  "source": "// SPDX-License-Identifier: MIT\r\npragma solidity ^0.8.4;\r\n\r\nimport \"@openzeppelin/contracts/token/ERC20/ERC20.sol\";\r\nimport \"@openzeppelin/contracts/utils/math/SafeMath.sol\";\r\nimport \"@openzeppelin/contracts/access/Ownable.sol\";\r\nimport \"./ERC20Token.sol\";\r\n\r\ncontract StakeContract is ERC20, Ownable {\r\n    using SafeMath for uint256;\r\n\r\n     //owner visible in this contract only\r\n    ERC20Token private ercToken;\r\n    uint public _time;\r\n    //array of everyone who has a stake. \r\n    //Holds the addresses\r\n    \r\n    address[] internal stakeHolders;\r\n\r\n    mapping(address => uint256) public stakeBalance;\r\n    mapping(address => bool) public isStakeholder;\r\n    mapping(address => uint256) public rewards;\r\n    \r\n    constructor() ERC20(\"StakeContract\", \"STK\") {\r\n        _mint(msg.sender, 1000 * 10 ** 18);\r\n       \r\n        _time = block.timestamp;\r\n    }\r\n\r\n    //Changes the price of the token per ETH\r\n    function modifyTokenBuyPrice(uint256 amount) public view onlyOwner returns(uint) {\r\n        uint price = amount * 10 ** 18;\r\n        return price;\r\n    }\r\n\r\n    //buys ercToken token when called\r\n    function buyToken(uint _quantity) public {\r\n        _mint(msg.sender, _quantity);\r\n    }\r\n\r\n    //stakes a certain amount of the token\r\n    //transferred from the senders, to the contract\r\n    function stake(uint256 _amount) public {\r\n        require(_amount > 0, \"You can't stake 0\");\r\n\r\n        _burn(msg.sender, _amount);\r\n\r\n        if(stakeBalance[msg.sender] == 0) stakeHolders.push(msg.sender);\r\n\r\n        stakeBalance[msg.sender] = stakeBalance[msg.sender].add(_amount);\r\n        isStakeholder[msg.sender] = true;\r\n    }\r\n\r\n    //unstake the token\r\n    function unStake(uint _amount) public  {\r\n        //gets the balance of the sender from the balance stake mapping \r\n        uint _balance = stakeBalance[msg.sender];\r\n\r\n        //transaction can only continue if the balance is nkit zero\r\n        require(_balance > 0, \"You can't unstake more than your stake\");\r\n\r\n        //substract unstaked value of the user from the staked amount\r\n        stakeBalance[msg.sender] = stakeBalance[msg.sender].sub(_amount);\r\n\r\n        //mint the token to the users account\r\n\r\n        _mint(msg.sender, _amount);\r\n\r\n\r\n        if(stakeBalance[msg.sender] == 0) {\r\n            isStakeholder[msg.sender] = false;\r\n        }\r\n    }\r\n\r\n    //only the owner can transfer token to stakeholders\r\n    function transferToken(uint _amount) public onlyOwner payable {\r\n        \r\n\r\n        for(uint i = 0; i < stakeHolders.length; i++) {\r\n            address stakeHolder = stakeHolders[i];\r\n\r\n            uint balance = stakeBalance[stakeHolder];\r\n            if(balance > 0) {\r\n\r\n                transfer(stakeHolder, _amount);\r\n            }\r\n        }\r\n    }\r\n\r\n    //claim reward\r\n    function claimReward() public {\r\n        //Reward can only be claimed if its within one week\r\n        require(_time < 7 days, \"Reward expired after 1 week\");\r\n\r\n        //calculate the value of users reward\r\n        //which is 1% of total stake\r\n        rewards[msg.sender] = stakeBalance[msg.sender] / 100;\r\n\r\n        //the reward of the user\r\n        uint reward = rewards[msg.sender];\r\n\r\n        // rewards the user\r\n        _mint(msg.sender, reward);\r\n\r\n        //sets reward to zero\r\n        rewards[msg.sender] = 0;\r\n        \r\n        //sets time to zero\r\n        _time = 0;\r\n\r\n        \r\n    }\r\n\r\n}\r\n",
  "sourcePath": "C:\\Users\\Harrison Ezugwu\\Desktop\\Blockgames\\truffleToken\\contracts\\StakeContract.sol",
  "compiler": {
    "name": "solc",
    "version": "0.8.4+commit.c7e474f2.Emscripten.clang"
  },
  "schemaVersion": "3.4.4",
  "updatedAt": "2022-03-24T16:13:24.967Z",
  "networkType": "ethereum",
  "devdoc": {
    "kind": "dev",
    "methods": {
      "allowance(address,address)": {
        "details": "See {IERC20-allowance}."
      },
      "approve(address,uint256)": {
        "details": "See {IERC20-approve}. NOTE: If `amount` is the maximum `uint256`, the allowance is not updated on `transferFrom`. This is semantically equivalent to an infinite approval. Requirements: - `spender` cannot be the zero address."
      },
      "balanceOf(address)": {
        "details": "See {IERC20-balanceOf}."
      },
      "decimals()": {
        "details": "Returns the number of decimals used to get its user representation. For example, if `decimals` equals `2`, a balance of `505` tokens should be displayed to a user as `5.05` (`505 / 10 ** 2`). Tokens usually opt for a value of 18, imitating the relationship between Ether and Wei. This is the value {ERC20} uses, unless this function is overridden; NOTE: This information is only used for _display_ purposes: it in no way affects any of the arithmetic of the contract, including {IERC20-balanceOf} and {IERC20-transfer}."
      },
      "decreaseAllowance(address,uint256)": {
        "details": "Atomically decreases the allowance granted to `spender` by the caller. This is an alternative to {approve} that can be used as a mitigation for problems described in {IERC20-approve}. Emits an {Approval} event indicating the updated allowance. Requirements: - `spender` cannot be the zero address. - `spender` must have allowance for the caller of at least `subtractedValue`."
      },
      "increaseAllowance(address,uint256)": {
        "details": "Atomically increases the allowance granted to `spender` by the caller. This is an alternative to {approve} that can be used as a mitigation for problems described in {IERC20-approve}. Emits an {Approval} event indicating the updated allowance. Requirements: - `spender` cannot be the zero address."
      },
      "name()": {
        "details": "Returns the name of the token."
      },
      "owner()": {
        "details": "Returns the address of the current owner."
      },
      "renounceOwnership()": {
        "details": "Leaves the contract without owner. It will not be possible to call `onlyOwner` functions anymore. Can only be called by the current owner. NOTE: Renouncing ownership will leave the contract without an owner, thereby removing any functionality that is only available to the owner."
      },
      "symbol()": {
        "details": "Returns the symbol of the token, usually a shorter version of the name."
      },
      "totalSupply()": {
        "details": "See {IERC20-totalSupply}."
      },
      "transfer(address,uint256)": {
        "details": "See {IERC20-transfer}. Requirements: - `to` cannot be the zero address. - the caller must have a balance of at least `amount`."
      },
      "transferFrom(address,address,uint256)": {
        "details": "See {IERC20-transferFrom}. Emits an {Approval} event indicating the updated allowance. This is not required by the EIP. See the note at the beginning of {ERC20}. NOTE: Does not update the allowance if the current allowance is the maximum `uint256`. Requirements: - `from` and `to` cannot be the zero address. - `from` must have a balance of at least `amount`. - the caller must have allowance for ``from``'s tokens of at least `amount`."
      },
      "transferOwnership(address)": {
        "details": "Transfers ownership of the contract to a new account (`newOwner`). Can only be called by the current owner."
      }
    },
    "version": 1
  },
  "userdoc": {
    "kind": "user",
    "methods": {},
    "version": 1
  }
}